:020000040800F2
:1000000080060020890100086F03000867030008CC
:100010006B03000843020008E50700080000000029
:10002000000000000000000000000000D9040008EB
:100030004702000800000000E1030008C5050008B1
:10004000A3010008A3010008A3010008A301000800
:10005000A3010008A3010008A3010008A3010008F0
:10006000A3010008A3010008A3010008A3010008E0
:10007000A3010008A3010008A3010008A3010008D0
:10008000A3010008A3010008A3010008A3010008C0
:10009000A3010008A3010008A3010008A3010008B0
:1000A000A3010008A3010008A3010008A3010008A0
:1000B000A3010008A3010008A3010008A301000890
:1000C000A3010008A3010008A3010008A301000880
:1000D000A301000829060008A3010008A3010008E5
:1000E000A3010008A3010008A301000800F002F822
:1000F00000F03AF80AA090E8000C82448344AAF188
:100100000107DA4501D100F02FF8AFF2090EBAE885
:100110000F0013F0010F18BFFB1A43F0010318473B
:10012000FC0900001C0A0000103A24BF78C878C1FE
:10013000FAD8520724BF30C830C144BF04680C60ED
:10014000704700000023002400250026103A28BF35
:1001500078C1FBD8520728BF30C148BF0B60704739
:100160001FB51FBD10B510BD00F031F81146FFF7E7
:10017000F7FF00F095FB00F04FF803B4FFF7F2FF34
:1001800003BC00F057F800000948804709480047C1
:10019000FEE7FEE7FEE7FEE7FEE7FEE7FEE7FEE737
:1001A000FEE7FEE704480549054A064B7047000094
:1001B000C9050008ED00000880000020800600202E
:1001C000800200208002002070477047704775460B
:1001D00000F02CF8AE4605006946534620F00700B3
:1001E000854618B020B5FFF7DDFFBDE820404FF091
:1001F00000064FF000074FF000084FF0000B21F011
:100200000701AC46ACE8C009ACE8C009ACE8C009DD
:10021000ACE8C0098D46704710B50446AFF30080C6
:100220002046BDE81040FFF7A8BF00000048704717
:100230002000002001491820ABBEFEE72600020086
:10024000704700BFFEE770472DE9F04102460025E8
:100250000026002000230024002791F803C00CF0A2
:100260000F0591F803C00CF0100CBCF1000F03D087
:1002700091F802C04CEA050591F800C0BCF1000FEE
:1002800031D0146800202BE04FF0010C0CFA00F381
:10029000B1F800C00CEA03069E4220D183004FF063
:1002A0000F0C0CFA03F7BC4305FA03FC4CEA0404F8
:1002B00091F803C0BCF1280F06D14FF0010C0CFAE5
:1002C00000FCC2F814C00AE091F803C0BCF1480F6A
:1002D00005D14FF0010C0CFA00FCC2F810C0401C14
:1002E0000828D1D31460B1F800C0BCF1FF0F34DD91
:1002F000546800202EE000F1080C4FF0010808FAC5
:100300000CF3B1F800C00CEA03069E4221D1830031
:100310004FF00F0C0CFA03F7BC4305FA03FC4CEA50
:10032000040491F803C0BCF1280F05D100F1080CBA
:1003300008FA0CF8C2F8148091F803C0BCF1480F19
:1003400007D100F1080C4FF0010808FA0CF8C2F8C8
:100350001080401C0828CED35460BDE8F081416174
:1003600070470161704700BFFEE700BFFEE77047BE
:1003700070B5002100230F22C47804B3154C246803
:1003800004F4E064C4F5E064210AC1F10403CA4046
:10039000447804FA03F184781440214309010E4C97
:1003A0000678A155047804F01F050124AC400578B7
:1003B0006D11AD0005F1E025C5F8004109E00478B4
:1003C00004F01F050124AC40044D0678761145F871
:1003D000264070BD0CED00E000E400E080E100E0AC
:1003E0007047000029B1064A92690243044B9A61A2
:1003F00004E0034A92698243014B9A61704700000E
:100400000010024030B500210022002400232D4DB1
:100410006D6805F00C0121B1042905D0082923D10C
:1004200005E0294D056022E0274D05601FE0254DC0
:100430006D6805F47012234D6D6805F48034022553
:1004400005EB92421CB9214D554305600BE01D4D53
:100450006D6805F400351DB11C4D5543056002E083
:10046000194D5543056002E0174D056000BF00BF00
:10047000144D6D6805F0F0010909154D6B5C0568B8
:10048000DD4045600F4D6D6805F4E061090A104DCF
:100490006B5C4568DD4085600A4D6D6805F4605110
:1004A000C90A0B4D6B5C4568DD40C560054D6D6844
:1004B00005F44041890B074D6B5CC568B5FBF3F54E
:1004C000056130BD0010024000127A0000093D00B5
:1004D0000000002010000020704710B500F002F866
:1004E00010BD00000CB5002001900090334800685A
:1004F00040F480303149086000BF3048006800F4A3
:10050000003000900198401C0190009818B90198A3
:10051000B0F5A06FF1D12948006800F4003010B1A7
:100520000120009001E0002000900098012843D1B4
:100530002348006840F01000214908600846006820
:1005400020F0030008600846006840F002000860E0
:100550001A4840681949486008464068486008469B
:10056000406840F4806048600846406820F47C1091
:1005700048600846406840F4E81048600846006853
:1005800040F08070086000BF0C48006800F0007008
:100590000028F9D00948406820F003000749486066
:1005A0000846406840F00200486000BF03484068C9
:1005B00000F00C000828F9D10CBD0000001002402A
:1005C000002002407047000010B51348006840F05A
:1005D00001001149086008464068104908400E496A
:1005E0004860084600680E4908400B490860084604
:1005F000006820F4802008600846406820F4FE006F
:1006000048604FF41F008860FFF767FF4FF00060FD
:100610000449086010BD0000001002400000FFF80F
:10062000FFFFF6FE08ED00E01A4800881A4908703E
:100630001A48007810B101282AD10EE01648007837
:10064000AA2809D1012016490870134800781549D5
:1006500008700120114908701AE00F48007811490C
:100660000F4A127888540E480078401C0C490870D4
:100670000846007803280AD10A488078552803D113
:1006800002200649087002E000200449087000BFFB
:1006900000BF7047044800401500002014000020EF
:1006A000160000201700002021B1828942F4005278
:1006B000828104E082894DF6FF731A40828170477F
:1006C000F0B50346002400260025002040F66A17F6
:1006D000B94200D100BF1846C1F3421401F01F0611
:1006E000012707FA06F5012C01D10C3004E0022C99
:1006F00001D1103000E014301AB107682F430760B1
:1007000002E00768AF430760F0BD00002DE9F04745
:1007100086B005460E460024A24600BFA14600272B
:10072000B08900B100BF2F462C8A4CF6FF70044000
:10073000F08804432C82AC894EF6F3100440B08854
:1007400031890843718908430443AC81AC8A4FF670
:10075000FF400440B0890443AC8201A8FFF752FE79
:100760001F48874202D1DDF810A001E0DDF80CA09F
:10077000A88900F4004040B10AEBCA0000EB0A105F
:1007800031684900B0FBF1F807E00AEBCA0000EB62
:100790000A1031688900B0FBF1F86420B8FBF0F072
:1007A00004012009642101FB1089A88900F400409C
:1007B00040B1322000EBC900B0FBF1F000F00700BF
:1007C000044308E0322000EB09106421B0FBF1F093
:1007D00000F00F0004432C8106B0BDE8F087000054
:1007E0000038014000BFFEE770B504464FF40770C3
:1007F00094FBF0F0C6B24FF4077094FBF0F100FBED
:10080000114085B205E04FF4077000F009F8701E42
:10081000C6B2002EF7D115B1284600F001F870BD20
:100820000146114A12884A434FF0E0235A610022E0
:100830009A611A46126942F001021A6100BF4FF034
:10084000E022106900F001021AB100F48032002A9F
:10085000F5D04FF0E022126922F001024FF0E023C0
:100860001A6100229A6170471C00002008B501211E
:100870000420FFF7B7FD1E20ADF8000010208DF812
:10088000030003208DF8020069460448FFF7DCFCF2
:100890001E210248FFF765FD08BD00000008014069
:1008A000FFF7E4FF4FF4E13000F0E0F800F05EF80D
:1008B00030E01948007868B30020174908701748DD
:1008C000407830B101280CD0022812D0032820D162
:1008D00017E002220121102000F022F800F0AEF80B
:1008E00017E002220121202000F01AF800F09AF807
:1008F0000FE002220121302000F012F800F086F80B
:1009000007E002220121402000F00AF800F0A2F8DE
:1009100000BF00BFCDE7000014000020170000203A
:100920002DE9F04105460E469046002715E00024CB
:100930000FE0012E04D10B49085D00F031F803E00F
:100940000949085D00F02CF80220FFF74DFF601CFC
:10095000C4B2082CEDDB781CC7B2AF42E7DBBDE8C0
:10096000F0810000140B00080C0B000808B50121F1
:100970001020FFF737FD0F20ADF8000010208DF894
:10098000030003208DF8020069460448FFF75CFC71
:100990000F210248FFF7E5FC08BD000000100140F0
:1009A00010B5044604F0010020B101211648FFF7FC
:1009B000D8FC03E001211448FFF7D1FC04F0020049
:1009C00020B102211048FFF7CCFC03E002210E48C1
:1009D000FFF7C5FC04F0040020B104210A48FFF72A
:1009E000C0FC03E004210848FFF7B9FC04F008004C
:1009F00020B108210448FFF7B4FC03E008210248B5
:100A0000FFF7ADFC10BD00000010014010B516212D
:100A10000348FFF7A6FC08210148FFF7A0FC10BD22
:100A20000008014010B51A210348FFF79AFC042181
:100A30000148FFF794FC10BD0008014010B51C21CF
:100A40000348FFF78EFC02210148FFF788FC10BD28
:100A50000008014010B50E210348FFF782FC102169
:100A60000148FFF77CFC10BD0008014010B586B0BE
:100A70000446012144F20400FFF7B4FC4FF4007077
:100A8000ADF8140003208DF8160018208DF817001B
:100A900005A91C48FFF7D8FB4FF48060ADF814009F
:100AA00004208DF8170005A91648FFF7CDFB019427
:100AB0000020ADF80800ADF80A00ADF80C00ADF864
:100AC00010000C20ADF80E0001A90F48FFF71EFE24
:100AD000012240F225510C48FFF7F2FD01210A489E
:100AE000FFF7E2FD25208DF8000003208DF80100BE
:100AF0008DF8020001208DF803006846FFF738FCEE
:100B000006B010BD0008014000380140080C040682
:100B1000020301090901030206040C083C0B00084A
:100B20000000002020000000280100085C0B0008E5
:100B300020000020600600004401000800000000C2
:100B4000010203040102030406070809020406085F
:0C0B500000000000000000000000000099
:04000005080000ED02
:00000001FF
